:020000040800F2
:10000000000001206D0B00084508000847080008A3
:10001000490800084B0800084D08000800000000CF
:10002000000000000000000000000000C12C0008DB
:100030004F08000800000000612D0008312A000868
:10004000B50B0008B50B0008B50B0008B50B000890
:10005000B50B0008B50B0008B50B0008B50B000880
:10006000B50B0008B50B0008B50B0008B50B000870
:10007000B50B0008B50B0008B50B0008B50B000860
:10008000B50B0008B50B0008B50B0008B50B000850
:1000900051080008B50B0008B50B0008B50B0008A7
:1000A000B50B0008B50B0008B50B0008B50B000830
:1000B00061080008B50B0008B50B0008B50B000877
:1000C000B50B0008B50B0008B50B0008B50B000810
:1000D000B50B000871080008B50B0008B50B000847
:1000E000B50B0008B50B0008B50B0008B50B0008F0
:1000F000B50B0008B50B0008B50B0008B50B0008E0
:10010000B50B0008B50B0008B50B0008B50B0008CF
:10011000B50B0008B50B0008B50B0008B50B0008BF
:10012000B50B0008B50B0008B50B0008B50B0008AF
:1001300000000000000000000000000000000000BF
:1001400000000000000000000000000000000000AF
:10015000000000000000000000000000000000009F
:10016000000000000000000000000000000000008F
:10017000000000000000000000000000000000007F
:10018000000000000000000000000000000000006F
:10019000000000000000000000000000000000005F
:1001A000000000000000000000000000000000004F
:1001B000000000000000000000000000000000003F
:1001C000000000000000000000000000000000002F
:1001D000000000000000000000000000000000001F
:0401E0005FF8E0F1F3
:1001F000844641EA000313F0030349D1403A23D374
:100200000B6803604B6843608B688360CB68C36096
:100210000B6903614B6943618B698361CB69C3617E
:100220000B6A03624B6A43628B6A8362CB6AC36266
:100230000B6B03634B6B43638B6B8363CB6BC3634E
:1002400040304031403ADBD230320BD30B68036090
:100250004B6843608B688360CB68C360103010319B
:10026000103AF3D20C3205D351F8043B40F8043B6A
:10027000043AF9D2043208D0D2071CBF11F8013B6E
:1002800000F8013B01D30B8803806046704700BF34
:10029000082A13D38B07B1D010F00303AED0C3F1FB
:1002A0000403D21ADB071CBF11F8013B00F8013B25
:1002B000A4D331F8023B20F8023B9FE7043AD9D39C
:1002C000013A11F8013B00F8013BF9D20B780370B9
:1002D0004B7843708B788370604670470348044BBB
:1002E000834202D0034B03B11847704770050020CA
:1002F00070050020000000000548064B1B1AD90FAE
:1003000001EBA301491002D0034B03B1184770471A
:1003100070050020700500200000000010B5064C9C
:10032000237843B9FFF7DAFF044B13B10448AFF366
:1003300000800123237010BD700500200000000024
:10034000404C000808B5054B1BB105490548AFF303
:100350000080BDE80840FFF7CFBF00BF00000000ED
:1003600074050020404C000808B50B480B4B036097
:100370001023436000238360C360036143610376FD
:1003800043768376C3760377437700F039FC00B970
:1003900008BD00F090F9FBE78C05002000640040E8
:1003A00030B587B00023029303930493059302684A
:1003B0001C4B9A4201D007B030BD03F5D633DA6941
:1003C00042F00072DA61DA6902F000720092009A7B
:1003D0009A6942F020029A619B6903F0200301931D
:1003E000019B0123029302AD0F4C2946204600F0E9
:1003F0001DFF0223029303930323059329462046FE
:1004000000F014FF094A536843F0E06343F4C0432B
:10041000536000220521142000F014FE142000F087
:1004200021FEC8E7006400400014014000000140C4
:1004300008B50A2002F091FBFBE7000008B5074A67
:100440000021074802F02EFB064B1860064A0021E7
:10045000064802F027FB064B186008BDAC4C0008AC
:10046000B9040008B8050020884C000831040008D1
:10047000B405002008B501280AD078B101228021F6
:100480000B4800F0F2FF00210A4801F0CFFE08BD42
:1004900001224021064800F0E8FFEFE7002240215A
:1004A00000F1804000F5843000F0DFFFE6E700BF98
:1004B000000801405006002008B51DE00A2002F0A7
:1004C0004CFB204B00221A701CE001211E4800F05A
:1004D000C5FF18B11B4B01221A701AE00120FFF76B
:1004E000C9FFF7E70A2002F038FB184B00221A7008
:1004F00015E0164B01221A700121134800F0AEFFDF
:100500000128DBD00F4B1B781BB9104B1B78012B3C
:10051000DBD010210E4800F0A1FF0028E2D00B4BE9
:100520001B78002BE8D1074B1B78012BE4D110215D
:10053000074800F093FF0128DBD10020FFF79AFF66
:10054000D7E700BF010000200008014000000020A4
:10055000001801402DE9F04F8BB006AC002606963E
:100560000796089609964B4B9A6942F040029A61A9
:100570009A6902F040020192019A9A6942F01002CF
:100580009A619A6902F010020292029A9A6942F004
:1005900004029A619A6902F004020392039A9A692A
:1005A00042F020029A619A6902F020020492049AB1
:1005B0009A6942F008029A619B6903F00803059367
:1005C000059BDFF8D4A001222021504600F04DFF0A
:1005D000DFF8C8903246E021484600F046FF304F31
:1005E0003246C021384600F040FF01224FF400712E
:1005F000384600F03AFF1023069307960125089528
:100600002146504600F012FE2023069307950895D8
:100610004FF00308CDF824802146504600F006FE36
:10062000069507964FF0020BCDF820B021464846BC
:1006300000F0FCFD602306934FF0110ACDF81CA0DA
:100640000896CDF824B02146484600F0EFFD8023FF
:10065000069307950895CDF824802146484600F07A
:10066000E5FDC0230693CDF81CA00895CDF82480A5
:100670002146384600F0DAFD4FF4007306930795E3
:100680000895CDF824802146384600F0CFFD0BB008
:10069000BDE8F08F00100240001801400008014042
:1006A000000C014008B50368B3F1804F00D008BDCD
:1006B00000F094FAFBE772B6FEE710B590B006AC16
:1006C00028220021204604F025F8002301930293FC
:1006D000039304930593012206924FF4803307930A
:1006E0000A9202220D920E934FF4E0130F932046CC
:1006F00000F0D8FE78B90F23019302210291002364
:1007000003934FF480620492059301A801F0FCF872
:1007100018B910B010BDFFF7CEFFFFF7CCFF08B53A
:1007200000F04AFAFFF7C9FFFFF714FFFFF71CFEBE
:1007300000F0CCF800F0BAF900F058F903F0CCFF63
:1007400002F082F9FFF77AFE02F090F9FEE700006E
:1007500000B583B0114B9A6942F001029A619A691F
:1007600002F001020092009ADA6942F08052DA61E6
:10077000DB6903F080530193019B00220F216FF08E
:10078000010000F05FFC064A536823F0E06343F089
:100790000073536003B05DF804FB00BF001002401B
:1007A0000000014030B589B00446224BDA6942F0BE
:1007B0000102DA61DB6903F001030193019B02A9E5
:1007C00003A801F07DF9069BD3B901F059F903465E
:1007D000194AA2FB03239B0C013B18484FF08042AF
:1007E000026040F2E732C26043600023036183602D
:1007F000836101F0C1FB054630B1284609B030BD28
:1008000001F03EF94300E3E70C4801F073FA0546B6
:100810000028F2D11C2000F025FC0F2C01D9012565
:10082000EBE7002221461C2000F00CFC044B1C606E
:10083000E3E700BF0010024083DE1B43BC0500203D
:100840000C000020FEE7FEE7FEE7FEE7FEE770474C
:1008500008B5024800F087FA08BD00BF8C050020EB
:1008600008B5024801F085FA08BD00BFBC050020AC
:1008700008B5024801F09AFF08BD00BF98060020A5
:1008800010B503460C4A0D490D48006840B10C48AC
:1008900000680344521A934206D8094A136010BDF7
:1008A0000748084C0460F2E703F0B8FF0C2303602C
:1008B0004FF0FF30F3E700BF00000120000400000C
:1008C00004060020C82500207047000000B587B04E
:1008D0000023029303930493059300930193164816
:1008E000164A02604722426083604FF6FF72C26080
:1008F0000361836101F040FBA8B94FF48053029378
:1009000002A90D4801F003FC80B900230093019374
:100910006946094801F0A6FD58B9074801F0B4F945
:1009200007B05DF804FBFFF7C6FEE6E7FFF7C3FE7E
:10093000EBE7FFF7C0FEF0E70806002000080040E4
:1009400082B003680E4A934204D00E4A93420CD000
:1009500002B070470C4BDA6942F00202DA61DB69DF
:1009600003F002030093009BF2E7074BDA6942F0C1
:100970000402DA61DB6903F004030193019BE7E7FA
:1009800000040040000800400010024000B587B09D
:10099000002302930393049305930268104B9A4239
:1009A00002D007B05DF804FB03F503339A6942F007
:1009B00010029A619B6903F010030193019B40238D
:1009C000029302230393059302A9064800F02EFC2C
:1009D000054A536843F0E06343F440635360E0E743
:1009E00000040040001001400000014010B58EB02E
:1009F00000230A930B930C930D930893099301938F
:100A00000293039304930593069307932548264A7C
:100A1000026040F28332426083606D22C2600361F3
:100A2000836101F0A9FA68BB4FF480530A930AA9C5
:100A30001C4801F06CFB40BB1A4801F0C9FA38BBF6
:100A400000230893099308A9164801F00BFD10BB79
:100A500030230193002202920392059201A91148CA
:100A600001F01AFBD0B9012200210F4801F0CEFBA2
:100A70000C4C0021204601F087FC2046FFF786FF42
:100A80000EB010BDFFF717FECEE7FFF714FED3E759
:100A9000FFF711FED4E7FFF70EFED9E7FFF70BFED5
:100AA000E1E700BF500600200004004008B50A48F6
:100AB0000A4B03604FF4E133436000238360C3605B
:100AC00003610C2242618361C36101F0B3FD00B98F
:100AD00008BDFFF7F0FDFBE7980600200038014055
:100AE00070B586B0002302930393049305930268C4
:100AF0001C4B9A4201D006B070BD03F558439A6969
:100B000042F480429A619A6902F480420092009A0B
:100B10009A6942F004029A619B6903F0040301930D
:100B2000019B4FF400730293022303930323059365
:100B300002AE0D4D3146284600F078FB4FF480633D
:100B400002930024039404943146284600F06EFB7F
:100B500022460521252000F075FA252000F082FAB2
:100B6000C9E700BF0038014000080140FFF7ACFEB4
:100B70000B480C490C4A002302E0D458C4500433FB
:100B8000C4188C42F9D3094A094C002301E01360D0
:100B90000432A242FBD303F047FEFFF7C0FD7047CB
:100BA0000000002070050020104D00087005002096
:100BB000C4250020FEE7000008B5074A136843F08B
:100BC00010031360032000F02BFA0F20FFF7EAFD5B
:100BD000FFF7BEFD002008BD00200240034A116857
:100BE000034B1B780B441360704700BFE0060020E6
:100BF00008000020014B1868704700BFE006002085
:100C0000002800F0A18038B5044690F82030D3B118
:100C10002268136843F001031360FFF7EBFF0546FA
:100C200023685A6812F0010F10D1FFF7E3FF401B51
:100C30000A28F5D9636A43F400336362052384F814
:100C40002030012038BDFFF7ABFBE1E71A6822F046
:100C500002021A60FFF7CEFF054623685A6812F0B9
:100C6000020F0DD0FFF7C6FF401B0A28F5D9636AB3
:100C700043F400336362052384F820300120E1E768
:100C8000227E012A3DD01A6822F080021A60637E1B
:100C9000012B3BD02268136823F040031360A37E2E
:100CA000012B39D02268136823F020031360E37E00
:100CB000012B37D02268136843F010031360237FA1
:100CC000012B35D02268136823F008031360637F7B
:100CD000012B33D02268136823F004031360A36848
:100CE000E268134322691343626913436268013A5D
:100CF00021681343CB6100206062012384F8203017
:100D0000A0E71A6842F080021A60C0E72268136800
:100D100043F040031360C2E72268136843F02003E6
:100D20001360C4E72268136823F010031360C6E75A
:100D30002268136843F008031360C8E72268136849
:100D400043F004031360CAE70120704770477047FF
:100D500070477047704770477047704770477047DB
:100D60007047704770472DE9F84F054603685C6986
:100D7000D3F804809F68D3F80CA0D3F81090D3F870
:100D800018B014F001063BD017F0010616D001226E
:100D90009A6017F0020F08D117F0040F0CD117F06A
:100DA000080606D04FF4805608E0FFF7CFFF002674
:100DB00004E0FFF7CEFF01E04FF4006617F4807FF8
:100DC0000DD02B684FF480729A6017F4007F40F0CA
:100DD000968017F4806F00F0968046F4005617F462
:100DE000803F0DD02B684FF480329A6017F4003F9B
:100DF00040F0938017F4802F00F0938046F4004673
:100E000014F0080F07D01AF0100F04D046F4007643
:100E10002B681022DA6014F0040F03D01AF0080FC8
:100E200040F0898014F0020F05D02B68DB6813F0C6
:100E3000030F40F0878014F0400F07D019F0100F17
:100E400004D046F480662B6810221A6114F0200F3B
:100E500002D019F0080F79D114F0100F04D02B68CC
:100E60001B6913F0030F78D114F4003F02D018F07F
:100E7000100F76D114F4803F02D018F0080F77D10C
:100E800014F4004F37D018F0040F31D014F4807FE1
:100E900004D01BF0010F01D046F0010614F4007FCE
:100EA00004D01BF0020F01D046F0020614F4806F4C
:100EB00004D01BF0040F01D046F0040614F4006FB8
:100EC00016D01BF0700B13D0BBF1400F66D056D874
:100ED000BBF1200F5CD0BBF1300F5CD0BBF1100F29
:100EE00001D146F008062A68936923F070039361E4
:100EF0002B6804225A60002E56D1BDE8F88F284690
:100F0000FFF725FF6BE717F4006F02D046F4804629
:100F100065E72846FFF71EFF61E72846FFF718FF41
:100F20006EE717F4002F02D046F4803668E72846B3
:100F3000FFF711FF64E72B680822DA602846FFF705
:100F40000CFF6FE72846FFF707FF74E72B680822BE
:100F50001A612846FFF703FF7EE72846FFF7FEFEEB
:100F600082E72B6810225A602846FFF7F9FE81E7D6
:100F70002B6808225A602846FFF7F3FE80E7BBF192
:100F8000500F0ED0BBF1600FADD146F48076AAE7CA
:100F900046F01006A7E746F02006A4E746F0400614
:100FA000A1E746F080069EE76B6A33436B622846F2
:100FB000FFF7D8FEA1E70000002808DB0901C9B24D
:100FC00000F1604000F5614080F80013704700F0C8
:100FD0000F000901C9B2014B1954704714ED00E02C
:100FE00000B500F00700C0F1070CBCF1040F28BFEA
:100FF0004FF0040C031D062B0FD9C31E4FF0FF3E0C
:101000000EFA0CF021EA000199400EFA03FE22EAE2
:101010000E0241EA02005DF804FB0023EEE7000047
:10102000074AD36823F4E0631B041B0C000200F49E
:10103000E060034343F0BF6343F40033D360704781
:1010400000ED00E010B50446054BD868C0F302205F
:10105000FFF7C6FF01462046FFF7AEFF10BD00BFF9
:1010600000ED00E0002807DB00F01F02400901232B
:101070009340024A42F82030704700BF00E100E090
:10108000034690F82120022A06D00422826300221F
:1010900080F820200120704701680A6822F00E02C3
:1010A0000A6001680A6822F001020A60026CC06BE3
:1010B000012101FA02F2426083F82110002083F836
:1010C0002000704708B590F82130022B03D004238C
:1010D0008363012008BD0268136823F00E031360C8
:1010E0000268136823F00103136003684B4A9342BC
:1010F0004ED9783A934224D01432934230D01432ED
:1011000093422FD0143293422FD0143293422FD0D7
:10111000143293422FD0143293422FD002F56272D0
:1011200093422ED0143293422DD0143293422CD0BD
:101130001432934202D04FF4803203E04FF48052D5
:1011400000E00122364B5A60012380F82130002351
:1011500080F82030436B002B5ED098470020B9E721
:101160001022EFE74FF48072ECE74FF48052E9E78A
:101170004FF48032E6E74FF48012E3E74FF08072DD
:10118000E0E70122DEE71022DCE74FF48072D9E7C6
:10119000244A934224D01432934225D014329342ED
:1011A00024D01432934224D01432934224D01432E7
:1011B000934224D01432934224D002F562729342B7
:1011C00023D01432934222D01432934221D01432CD
:1011D000934202D04FF4803203E04FF4805200E09B
:1011E0000122114B5A60AFE71022FAE74FF48072E8
:1011F000F7E74FF48052F4E74FF48032F1E74FF411
:101200008012EEE74FF08072EBE70122E9E710224F
:10121000E7E74FF48072E4E700205BE780000240DC
:1012200000040240080002400000024070B582B095
:101230000024A446A8E0834DAB4214D00CD8A5F5F9
:101240008015AB420FD005F57025AB420BD0A5F54C
:101250008015AB421FD106E07B4DAB4203D005F5B4
:101260008035AB4217D18B68A3B1012B0DD0426101
:10127000082410E0CC680EE0CC6804340BE0CC68A5
:10128000083408E0CC680C3405E00261082402E070
:10129000002400E00424BEF1FF0F41D806464FEAC7
:1012A0008C0233680F25954023EA050304FA02F205
:1012B000134333604B6813F0805F63D0634B9A69CC
:1012C00042F001029A619B6903F001030193019BC3
:1012D0004FEA9C02951C5E4B53F825600CF0030509
:1012E000AD000F23AB4026EA03065A4B98421ED0AE
:1012F00003F58063984200F0838003F58063984291
:1013000000F0808003F5806398427DD003F5806310
:1013100098427BD003F58063984206D0062307E00D
:10132000061DACF108029200BBE7052300E0002394
:10133000AB4033430232464D45F822304B6813F43C
:10134000801F65D0444A936843EA0E0393604B685C
:1013500013F4001F62D0404AD36843EA0E03D360FF
:101360004B6813F4003F5FD03B4A536843EA0E03D7
:1013700053604B6813F4803F5CD0374A136843EAEC
:101380000E0313600CF1010C0B6833FA0CF257D00A
:10139000012202FA0CF203EA020E32EA0303F1D14F
:1013A0004B68122B3FF647AF122B3FF674AF01A5E7
:1013B00055F823F067120008751200087F12000824
:1013C000911200089712000897120008971200085F
:1013D0009712000897120008971200089712000849
:1013E0009712000897120008971200089712000839
:1013F0009712000897120008791200088512000859
:10140000012395E7022393E7032391E704238FE762
:10141000114A936823EA0E03936098E70E4AD36853
:1014200023EA0E03D3609BE70B4A536823EA0E03BB
:1014300053609EE7084A136823EA0E031360A1E78E
:1014400002B070BD000022100000311000100240F8
:101450000000014000080140000401408368194277
:1014600001D001207047002070470AB10161704728
:10147000090401617047000082B0084B1B68084AEC
:10148000A2FB03235B0A00FB03F3019300BF019B54
:101490005A1E0192002BF9D102B0704704000020BF
:1014A000D34D6210002800F0F18170B582B004467F
:1014B000036813F0010F2CD0994B5B6803F00C0309
:1014C000042B1DD0964B5B6803F00C03082B12D045
:1014D0006368B3F5803F41D0002B55D103F18043C1
:1014E00003F504331A6822F480321A601A6822F471
:1014F00080221A6037E08A4B5B6813F4803FE7D0A4
:10150000874B1B6813F4003F03D06368002B00F087
:10151000BF81236813F0020F75D0814B5B6813F015
:101520000C0F5FD07E4B5B6803F00C03082B54D08C
:101530002369002B00F08A807A4B01221A60FFF7A2
:1015400059FB0546764B1B6813F0020F75D1FFF768
:1015500051FB401B0228F5D903209EE1704A136815
:1015600043F480331360636843B3FFF743FB0546DE
:101570006B4B1B6813F4003FCBD1FFF73BFB401BC9
:101580006428F5D9032088E1B3F5A02F09D0644B76
:101590001A6822F480321A601A6822F480221A60D3
:1015A000E1E703F18043A3F53C331A6842F480225B
:1015B0001A601A6842F480321A60D4E7FFF71AFB07
:1015C0000546574B1B6813F4003FA2D0FFF712FBF0
:1015D000401B6428F5D903205FE1514B5B6813F48D
:1015E000803FA5D14E4B1B6813F0020F03D0236937
:1015F000012B40F04F814A4A136823F0F8036169D8
:1016000043EAC1031360236813F0080F33D0A369C2
:10161000002B5CD0434B0122C3F88024FFF7EAFA89
:1016200005463F4B5B6A13F0020F21D1FFF7E2FA48
:10163000401B0228F5D903202FE1394A136823F013
:10164000F803616943EAC1031360DCE7354B00220C
:101650001A60FFF7CFFA0546314B1B6813F0020FF3
:10166000D1D0FFF7C7FA401B0228F5D9032014E1B7
:101670000120FFF701FF236813F0040F00F09680AC
:10168000274BDB6913F0805F34D1254BDA6942F0D8
:101690008052DA61DB6903F080530193019B0125DD
:1016A000214B1B6813F4807F26D0E368012B3DD0CB
:1016B000002B53D103F1804303F504331A6A22F05F
:1016C00001021A621A6A22F004021A6233E0154B10
:1016D0000022C3F88024FFF78DFA0546104B5B6AA1
:1016E00013F0020FC7D0FFF785FA401B0228F5D987
:1016F0000320D2E00025D3E70B4A136843F480733C
:101700001360FFF777FA0646074B1B6813F4807FD8
:10171000CBD1FFF76FFA801B6428F5D90320BCE01A
:101720000010024000004242007000405F4A136A0D
:1017300043F001031362E36833B3FFF75BFA064635
:101740005A4B1B6A13F0020F2FD1FFF753FA801B7D
:1017500041F288339842F3D903209EE0052B09D04B
:10176000524B1A6A22F001021A621A6A22F004022B
:101770001A62E0E74D4B1A6A42F004021A621A6AD2
:1017800042F001021A62D6E7FFF734FA0646474BE9
:101790001B6A13F0020F08D0FFF72CFA801B41F2EE
:1017A00088339842F3D9032077E0E5B9E369002B49
:1017B00072D03E4A526802F00C02082A56D0022B20
:1017C00017D03B4B00221A66FFF714FA0446374B3A
:1017D0001B6813F0007F47D0FFF70CFA001B0228AC
:1017E000F5D9032059E0314AD36923F08053D361FE
:1017F000DCE72F4B00221A66FFF7FCF905462B4B5E
:101800001B6813F0007F06D0FFF7F4F9401B022895
:10181000F5D9032041E0236AB3F5803F1AD023496C
:101820004B6823F47413226A606A024313434B60CB
:101830001F4B01221A66FFF7DDF904461B4B1B689C
:1018400013F0007F0ED1FFF7D5F9001B0228F5D960
:10185000032022E0154A536823F40033A1680B43A8
:101860005360DCE7002018E0002016E0012B16D0C2
:101870000E4B5B6803F48031226A914211D103F46C
:101880007013626A93420ED1002006E00120704777
:10189000012002E0012000E0002002B070BD012024
:1018A000FBE70120F9E70120F7E700BF0010024045
:1018B000000042420F4B5B6803F00C02082A01D083
:1018C0000D487047C3F383420C49885C13F4803F92
:1018D0000BD0084B5B68C3F34043094AD35C064A0C
:1018E00002FB00F0B0FBF3F07047064B03FB00F087
:1018F000704700BF0010024000127A00EC4C000854
:10190000E84C000800093D00002800F0A08070B5F8
:101910000D460446524B1B6803F007038B420BD263
:101920004F4A136823F007030B431360136803F057
:1019300007038B4240F08D80236813F0020F17D00D
:1019400013F0040F04D0474A536843F4E063536034
:10195000236813F0080F04D0424A536843F46053DD
:101960005360404A536823F0F003A1680B4353606F
:10197000236813F0010F31D06368012B20D0022BB4
:1019800025D0384A126812F0020F64D035494A68EF
:1019900022F0030213434B60FFF72CF90646314B4C
:1019A0005B6803F00C036268B3EB820F16D0FFF79D
:1019B00021F9801B41F288339842F0D9032045E099
:1019C000284A126812F4003FE0D101203EE0254A87
:1019D000126812F0007FD9D1012037E0204B1B683C
:1019E00003F00703AB420AD91D4A136823F007032B
:1019F0002B431360136803F00703AB422DD1236818
:101A000013F0040F06D0174A536823F4E063E1682B
:101A10000B435360236813F0080F07D0114A536833
:101A200023F46053216943EAC1035360FFF742FF87
:101A30000C4B5B68C3F303130B4AD35CD8400B4BCE
:101A400018600B4B1868FEF7ADFE002070BD01203A
:101A500070470120FAE70120F8E70120F6E700BF10
:101A60000020024000100240D84C00080400002072
:101A70000C000020014B1868704700BF04000020D4
:101A800008B5FFF7F7FF044B5B68C3F30223034A73
:101A9000D35CD84008BD00BF00100240D04C000805
:101AA00008B5FFF7E7FF044B5B68C3F3C223034AA3
:101AB000D35CD84008BD00BF00100240D04C0008E5
:101AC0000F2303600B4B5A6802F0030242605A680E
:101AD00002F0F00282605A6802F4E062C2605B6861
:101AE000DB0803F4E0630361034B1B6803F00703A7
:101AF0000B607047001002400020024030B4036ABF
:101B0000026A22F0010202624268846924F0730CC6
:101B10000C6844EA0C0423F0020C8B6843EA0C03C3
:101B2000114DA84203D005F50065A84205D123F068
:101B30000803CD682B4323F004030B4DA84203D0C8
:101B400005F50065A84207D122F440724D6945EAC7
:101B5000020C8A6942EA0C02426084614A6842636C
:101B6000036230BC704700BF002C014030B4036AF0
:101B7000026A22F4807202624268C46924F0730C23
:101B80000C6844EA0C0523F400738C6843EA0423D0
:101B9000114CA04203D004F50064A04206D123F406
:101BA0000063CC6843EA042323F480630A4CA04218
:101BB00003D004F50064A04207D122F440524C69DE
:101BC00042EA04128C6942EA04124260C5614A6822
:101BD000C263036230BC7047002C014030B4036A1A
:101BE000026A22F4805202624468C26922F4E64228
:101BF0000D6842EA052223F400538D6843EA053359
:101C0000094DA84203D005F50065A84204D124F48B
:101C100080444D6944EA85144460C2614A680264A4
:101C2000036230BC704700BF002C014010B4036A4F
:101C3000046A24F001040462846924F0F00C4CEA84
:101C4000021223F00A030B438261036210BC704747
:101C500010B4036A046A24F010040462846924F452
:101C6000704C4CEA023223F0A00343EA0113826174
:101C7000036210BC7047836823F070030B4343F08A
:101C8000070383607047000090F83D30012B2AD194
:101C9000022380F83D300368154A934218D002F5BC
:101CA0000062934214D0B3F1804F11D0A2F5983264
:101CB00093420DD002F58062934209D002F5806212
:101CC000934205D01A6842F001021A600020704762
:101CD0009A6802F00702062A07D01A6842F0010249
:101CE0001A6000207047012070470020704700BF35
:101CF000002C014090F83D30012B2FD1022380F8B9
:101D00003D300268D36843F00103D3600368154A8D
:101D1000934218D002F50062934214D0B3F1804F81
:101D200011D0A2F5983293420DD002F58062934211
:101D300009D002F58062934205D01A6842F0010290
:101D40001A60002070479A6802F00702062A07D03E
:101D50001A6842F001021A600020704701207047A3
:101D600000207047002C0140704770477047704753
:101D7000704770B504460368DE681D6915F0020FF0
:101D800010D016F0020F0DD06FF002021A6101237D
:101D9000037703689B6913F0030F5ED0FFF7E6FF3C
:101DA0000023237715F0040F12D016F0040F0FD084
:101DB00023686FF004021A610223237723689B696A
:101DC00013F4407F4FD02046FFF7D0FF0023237746
:101DD00015F0080F12D016F0080F0FD023686FF01F
:101DE00008021A61042323772368DB6913F0030FC9
:101DF00040D02046FFF7BAFF0023237715F0100FDD
:101E000012D016F0100F0FD023686FF010021A6175
:101E1000082323772368DB6913F4407F31D0204601
:101E2000FFF7A4FF0023237715F0010F02D016F06F
:101E3000010F2DD115F0800F02D016F0800F2FD199
:101E400015F0400F02D016F0400F31D115F0200FE1
:101E500002D016F0200F33D170BDFFF786FF204669
:101E6000FFF785FF9CE72046FFF77FFF2046FFF73F
:101E70007EFFABE72046FFF778FF2046FFF777FFAE
:101E8000BAE72046FFF771FF2046FFF770FFC9E76A
:101E900023686FF001021A612046FEF703FCC9E7D0
:101EA00023686FF080021A61204600F01AFBC7E732
:101EB00023686FF040021A612046FFF759FFC5E71B
:101EC00023686FF020021A61204600F009FBC3E787
:101ED0000368284A904212D002F5006290420ED068
:101EE000B0F1804F0BD0A2F59832904207D002F5A6
:101EF0008062904203D002F58062904203D123F0C9
:101F000070034A6813431B4A904212D002F50062E4
:101F100090420ED0B0F1804F0BD0A2F59832904293
:101F200007D002F58062904203D002F580629042B1
:101F300003D123F44073CA68134323F080034A6932
:101F4000134303608B68C3620B688362094B98423A
:101F500003D003F50063984201D10B6903630123A9
:101F60004361036913F0010F03D0036923F00103F8
:101F700003617047002C014040B310B5044690F84F
:101F80003D30F3B1022384F83D30214651F8040B73
:101F9000FFF79EFF012384F8463084F83E3084F832
:101FA0003F3084F8403084F8413084F8423084F87F
:101FB000433084F8443084F8453084F83D300020C4
:101FC00010BD80F83C30FEF7BBFCDBE7012070471A
:101FD00040B310B5044690F83D30F3B1022384F8C5
:101FE0003D30214651F8040BFFF772FF012384F8BE
:101FF000463084F83E3084F83F3084F8403084F82E
:10200000413084F8423084F8433084F8443084F816
:10201000453084F83D30002010BD80F83C30FFF79B
:10202000A3FEDBE70120704730B4036A026A22F0A6
:10203000100202624468826922F4E6420D6842EAB4
:10204000052223F020038D6843EA0513114DA842B1
:1020500003D005F50065A84206D123F08003CD68C2
:1020600043EA051323F040030A4DA84203D005F5C7
:102070000065A84207D124F440644D6944EA850410
:102080008D6944EA8504446082614A688263036220
:1020900030BC7047002C014090F83C30012B28D018
:1020A00010B50446012380F83C300C2A1CD8DFE828
:1020B00002F0071B1B1B0C1B1B1B111B1B1B160001
:1020C0000068FFF71BFD00200FE00068FFF7ACFF82
:1020D00000200AE00068FFF749FD002005E00068E5
:1020E000FFF77CFD002000E00120002384F83C3055
:1020F00010BD0220704710B4846824F47F4C42EA7B
:1021000003220A4342EA0C02826010BC704790F836
:102110003C30012B78D010B50446012380F83C30C8
:10212000022380F83D300268936823F47F4323F054
:10213000770393600B68602B4CD023D8402B54D08E
:1021400011D8202B03D00AD80BB1102B05D119467A
:102150002068FFF790FD002028E0012026E0302BCA
:10216000F5D0012022E0502B0AD1CA6849680068E6
:10217000FFF75CFD50212068FFF77DFD002015E092
:10218000012013E0B3F5805F3AD0B3F5005F14D0BF
:10219000702B37D1CB684A6889680068FFF7ABFFBE
:1021A0002268936843F0770393600020012384F84A
:1021B0003D30002384F83C3010BDCB684A68896804
:1021C0000068FFF798FF2268936843F480439360A8
:1021D0000020EBE7CA6849680068FFF739FD602115
:1021E0002068FFF748FD0020E0E7CA6849680068FA
:1021F000FFF71CFD40212068FFF73DFD0020D5E7DB
:102200000020D3E70120D1E70220704701F01F0131
:102210004FF0010C0CFA01FC036A23EA0C03036281
:10222000036A8A40134303627047000010B50446F6
:10223000084600293FD194F83E30013B18BF0123E6
:10224000002B40F0988000284BD1022384F83E30C8
:102250002268D36843F00203D3600122014620685C
:10226000FFF7D4FF2368474A934203D002F5006288
:10227000934203D15A6C42F400425A642368414AA3
:1022800093426DD002F50062934269D0B3F1804F62
:1022900066D0A2F59832934262D002F580629342F2
:1022A0005ED002F5806293425AD01A6842F0010271
:1022B0001A60002060E0042907D008290BD094F8A8
:1022C0004130013B18BF0123BAE794F83F30013B8E
:1022D00018BF0123B4E794F84030013B18BF012335
:1022E000AEE7042824D008282BD0022384F84130FC
:1022F0000C2842D801A353F820F000BF5122000857
:102300007B2300087B2300087B2300083723000879
:102310007B2300087B2300087B2300084923000857
:102320007B2300087B2300087B230008552300083B
:10233000022384F83F302268D36843F00403D3605B
:102340008BE7022384F840302268D36843F0080307
:10235000D36082E72268D36843F01003D3607CE740
:102360009A6802F00702062A09D01A6842F00102B0
:102370001A60002000E0012010BD0120FCE70020D1
:10238000FAE700BF002C014038B505460C460C2981
:1023900063D8DFE801F0076262622E626262346233
:1023A00062623A000268D36823F00203D36000221D
:1023B00021462868FFF72AFF2B68294A93422AD032
:1023C00002F50062934226D02B68196A41F211127D
:1023D000114208D1196A40F24442114203D11A68ED
:1023E00022F001021A602CBB012385F83E30002048
:1023F00034E00268D36823F00403D360D7E70268AF
:10240000D36823F00803D360D1E70268D36823F0D0
:102410001003D360CBE7196A41F211121142D3D1F4
:10242000196A40F244421142CED15A6C22F4004261
:102430005A64C9E7042C06D0082C09D0012385F87A
:10244000413000200AE0012385F83F30002005E0FC
:10245000012385F84030002000E0012038BD00BF96
:10246000002C014090F83C20012A34D010B40346DF
:10247000012280F83C20022280F83D20026850684A
:10248000946820F0700C086840EA0C0050601A68EC
:102490001248824212D000F5006082420ED0B2F1A2
:1024A000804F0BD0A0F59830824207D000F58060B5
:1024B000824203D000F58060824204D124F080047F
:1024C000496821439160012283F83D20002083F870
:1024D0003C0010BC70470220704700BF002C014038
:1024E00070477047026802F10C0353E8003F23F481
:1024F00090730C3242E800310029F3D1026802F1F6
:10250000140353E8003F23F00103143242E8003182
:102510000029F3D1036B012B05D0202380F8423032
:10252000002303637047026802F10C0353E8003F85
:1025300023F010030C3242E800310029F3D1ECE71C
:1025400090F84130212B01D0022070478368B3F509
:10255000805F17D0036A5A1C02621A7803685A60B7
:10256000C38C9BB2013B9BB2C3844BB90268D36856
:1025700023F08003D3600268D36843F04003D36044
:10258000002070470369002BE4D1036A1B880268AE
:10259000C3F308035360036A02330362E0E70000F9
:1025A00010B504460268136923F44053C1680B4315
:1025B000136183680269134342691A430168CB6857
:1025C00023F4B05323F00C031343CB600268536928
:1025D00023F4407381690B4353610268134B9A42A1
:1025E00020D0FFF74DFA024602EB820202EB820294
:1025F00063689B00B2FBF3F20D48A0FB023149096E
:10260000642303FB11231B013233A0FB03035B098B
:1026100003F0F00202EB011203F00F0321681344F0
:102620008B6010BDFFF73CFA0246DDE70038014041
:102630001F85EB5160B310B5044690F8413013B3D9
:10264000242384F841302268D36823F40053D360F4
:102650002046FFF7A5FF2268136923F49043136116
:102660002268536923F02A0353612268D36843F434
:102670000053D36000206064202384F8413084F844
:102680004230606310BD80F84030FEF729FAD7E78A
:1026900001207047704708B50168CA6822F04002FF
:1026A000CA60202280F84120FFF7F4FF002008BD17
:1026B0007047704708B5406A0023C385C384FFF79D
:1026C000F8FF08BD704790F84230222B69D183682B
:1026D000B3F5805F4FD0826AB3F5805F04D0002BE2
:1026E00056D10369002B53D103685B681370836A6A
:1026F00001338362C38D9BB2013B9BB2C385002B28
:1027000051D100B583B00268D36823F02003D360B1
:102710000268D36823F48073D3600268536923F09E
:1027200001035361202380F8423000234363036B8D
:10273000012B33D100230363026802F10C0353E839
:10274000003F23F010030C3242E800310029F3D19E
:1027500003681A6812F0100F06D0002201921A685E
:1027600001925B680193019B818DFFF7ABFF002015
:1027700003B05DF804FB0269002AACD1826A0368E9
:102780005B68C3F308031380836A02338362B1E793
:1027900003685B6803F07F031370A8E7FFF788FF07
:1027A000E5E70220704700207047000010B582B0B6
:1027B000044602681368D068516913F00F0F09D1FD
:1027C00013F0200F0CD010F0200F09D02046FFF797
:1027D0007AFF16E011F0010115D110F4907F12D1AB
:1027E000216B012979D013F0800F03D010F0800FF6
:1027F00040F0138113F0400F03D010F0400F40F071
:10280000108102B010BD13F0010F06D010F4807FCC
:1028100003D0626C42F00102626413F0040F04D032
:1028200019B1626C42F00202626413F0020F04D02C
:1028300019B1626C42F00402626413F0080F07D011
:1028400010F0200F00D119B1626C42F008026264EE
:10285000626C002AD5D013F0200F02D010F0200FA8
:1028600029D123685B6903F04003626C12F0080F02
:1028700000D163B32046FFF735FE23685B6913F090
:10288000400F20D0226802F1140353E8003F23F0E8
:102890004003143242E800310029F3D1E36B73B1F5
:1028A000624A5A63E06BFEF70DFC0028A9D0E06B8A
:1028B000436B9847A5E72046FFF705FFD1E7204681
:1028C000FFF7F7FE9DE72046FFF7F3FE99E7204666
:1028D000FFF7EFFE0023636493E713F0100F82D03D
:1028E00010F0100F3FF47FAF0023019313680193A2
:1028F00053680193019B536913F0400F51D0E26B71
:1029000013685B689BB2002B3FF47BAFA18D9942AB
:102910007FF677AFE3859369202B37D0226802F1E9
:102920000C0353E8003F23F480730C3242E800317B
:102930000029F3D1226802F1140353E8003F23F089
:102940000103143242E800310029F3D1226802F178
:10295000140353E8003F23F04003143242E80031EF
:102960000029F3D1202384F8423000232363226816
:1029700002F10C0353E8003F23F010030C3242E84D
:1029800000310029F3D1E06BFEF77AFB0223636389
:10299000A18DE38D9BB2C91A89B22046FFF792FE42
:1029A0002FE7A18DE38D9BB2C91A89B2E38D9BB24B
:1029B000002B3FF426AF00293FF423AF226802F139
:1029C0000C0353E8003F23F490730C3242E80030CC
:1029D0000028F3D1226802F1140353E8003F23F0EA
:1029E0000103143242E800300028F3D1202384F898
:1029F000423000232363226802F10C0353E8003FB6
:102A000023F010030C3242E800300028F3D10223F7
:102A100063632046FFF756FEF3E62046FFF790FD7E
:102A2000EFE62046FFF737FEEBE600BFB5260008CD
:102A300008B54FF0E0231B6901F0C2FB012800D16B
:102A400008BD00F0AFF9FBE7EFF305832BB9064BA8
:102A5000186828B901221A6070476FF005007047A6
:102A60004FF0FF30704700BF28100020EFF30583C0
:102A700073B90A4B1B68012B0DD110B50024084B0C
:102A8000DC77064B02221A6001F0E6F8204610BD02
:102A90006FF0050070474FF0FF307047281000209E
:102AA00000ED00E0F0B587B000240594EFF3058455
:102AB0000CBB00B3002A35D0156893692BB11E46B4
:102AC000013B372B02D9002016E01826536813F07B
:102AD000010F40D154698CB14FEA940C936833B123
:102AE000D768B7F5D07F02D3176907B184B943B16E
:102AF0004FF0FF330BB3059807B0F0BD4FF0800CDB
:102B0000ECE7D368A3B91369ABB14FF0FF33F1E73A
:102B10000293019700960B466246294601F02CF875
:102B20000590E8E71546002318264FF0800CE1E7F2
:102B30004FF0FF33DEE70023DCE705AB019300969F
:102B40000B461FFA8CF2294601F053F80128D2D027
:102B500000230593CFE70020CEE708B5EFF3058308
:102B600033B908B9002008BD01F0E2F90020FAE706
:102B70006FF00500F7E70000034B0360034B0B60A9
:102B800080231360704700BF880E0020880C00204F
:102B9000034B0360034B0B604FF48073136070476B
:102BA000E80A0020E406002000F1080343604FF02B
:102BB000FF328260C360036100230360704700231B
:102BC0000361704743684B609A688A6051609960FE
:102BD0000861036801330360704730B40D68B5F1D4
:102BE000FF3F11D000F108031C465B681A68AA4237
:102BF000FAD963684B6099608C6061600861036812
:102C00000133036030BC70470469F2E7036941682F
:102C100082688A60416851605A68824206D0002208
:102C200002611A68013A1A601868704782685A602F
:102C3000F5E7000082B0002301930D4B1B68B3F150
:102C4000FF3F08D04FF0500383F31188BFF36F8F1D
:102C5000BFF34F8FFEE74FF0500383F31188BFF3AC
:102C60006F8FBFF34F8F019B002BFCD002B07047DA
:102C70001000002006480068006880F3088862B6EB
:102C800061B6BFF34F8FBFF36F8F00DF00BF00004F
:102C900008ED00E04FF0807340F8043C21F00101A2
:102CA00040F8081C034B40F80C3C40F8202C4038FE
:102CB000704700BF352C0008000000000000000035
:102CC000074B19680868B0E8F00F80F30988BFF374
:102CD0006F8F4FF0000080F311884EF00D0E70479B
:102CE000902100204FF0500383F31188BFF36F8FC2
:102CF000BFF34F8F0B4A136801331360012B00D0D1
:102D000070474FF0E023D3F8043D13F0FF0FF7D0E6
:102D10004FF0500383F31188BFF36F8FBFF34F8FD2
:102D2000FEE700BF10000020094B1B6843B94FF0BD
:102D3000500383F31188BFF36F8FBFF34F8FFEE70C
:102D4000013B034A13600BB983F31188704700BF3E
:102D50001000002000000000000000000000000043
:102D6000EFF30980BFF36F8F0D4B1A6820E9F00F66
:102D700010602DE908404FF0500080F3118801F0F9
:102D8000FDF84FF0000080F31188BDE80840196895
:102D90000868B0E8F00F80F30988BFF36F8F7047C1
:102DA0009021002008B54FF0500383F31188BFF342
:102DB0006F8FBFF34F8F00F0B3FF28B14FF0E023C8
:102DC0004FF08052C3F8042D002383F3118808BD0F
:102DD0004FF0E022002313619361054B1B68054906
:102DE000A1FB03139B09013B536107231361704748
:102DF00004000020D34D621010B582B02A4B1A781F
:102E0000D2B20192FF221A701B78DBB28DF8033028
:102E10009DF8033003F05003244A1370244B07221B
:102E20001A6009E0224A1368013B13609DF80330E1
:102E30005B00DBB28DF803309DF8033013F0800F98
:102E4000F0D11B4B1B68032B08D04FF0500383F3CA
:102E50001188BFF36F8FBFF34F8FFEE71B02144A39
:102E6000136003F4E0631360019BDBB20E4A13703E
:102E70004FF0E023D3F8202D42F47002C3F8202D48
:102E8000D3F8202D42F07042C3F8202DFFF7A0FFA9
:102E90000024084B1C60FFF7EDFE01F06FF8FFF710
:102EA000C9FE204602B010BD00E400E03010002052
:102EB0002C10002010000020EFF305830F2B0ED9FB
:102EC000114A9A5C114B1B789A4208D24FF050037A
:102ED00083F31188BFF36F8FBFF34F8FFEE74FF07F
:102EE000E023D3F80C3D03F4E063094A12689342EF
:102EF00008D94FF0500383F31188BFF36F8FBFF3EE
:102F00004F8FFEE7704700BFF0E300E03010002075
:102F10002C100020124A12F0070F1ED0D11D21F0F4
:102F20000701C1F5406313440A460E4802600021C0
:102F300041601344083B23F007030B4803605960CA
:102F40001960991A51601360084B1960084B196099
:102F5000084B4FF000421A6070474FF44063E4E7BB
:102F6000541000204C100020481000204010002079
:102F70004410002034100020154B1A461B68834271
:102F8000FBD3516802EB010C844509D0416800EB8A
:102F9000010C634509D00360904218D0106070475F
:102FA0004068014451601046F0E710B4094C2468B1
:102FB000A3420AD05B681944416013681B68036030
:102FC000904200D0106010BC70470460F8E7704772
:102FD0004C1000204810002038B5044600F092FE46
:102FE000384B1B68B3B1384B1B681C4250D1002CC6
:102FF00050D004F1080214F0070F02D022F00702AB
:103000000832002A55D0314B1B68934253D33049C4
:103010000C6804E0FFF77EFFE5E721461C46636885
:10302000934202D22368002BF7D1264B1B68A342A0
:1030300043D00D68083523680B6063689B1A102B1A
:1030400010D9A01810F0070F08D04FF0500383F3E9
:103050001188BFF36F8FBFF34F8FFEE7436062604D
:10306000FFF78AFF626819490B689B1A0B601949C0
:1030700009688B4201D217490B60134B1B6813433D
:10308000636000232360144A13680133136002E075
:10309000002500E0002500F0CFFE15F0070F0ED050
:1030A0004FF0500383F31188BFF36F8FBFF34F8F3F
:1030B000FEE70025EFE70025EDE70025EBE72846D2
:1030C00038BD00BF481000203410002044100020FC
:1030D0004C100020401000203C100020002834D06C
:1030E00038B50446A0F1080550F8043C174A1268A8
:1030F000134208D14FF0500383F31188BFF36F8F51
:10310000BFF34F8FFEE750F8081C41B14FF050035A
:1031100083F31188BFF36F8FBFF34F8FFEE723EA6E
:10312000020340F8043C00F0EDFD54F8041C084A8A
:1031300013680B4413602846FFF71EFF054A136807
:103140000133136000F078FE38BD70473410002062
:10315000441000203810002010B50446FFF7C2FDCF
:10316000A26BE36B9A4204D00024FFF7DDFD2046FA
:1031700010BD0124F9E710B50446FFF7B3FDA36BBA
:1031800023B90124FFF7D0FD204610BD0024F9E744
:1031900070B504461546866B026C5AB903681BB1BC
:1031A00000200136A66370BD806801F019F8002385
:1031B000A360F6E76DB94068FDF71AF86368226C02
:1031C00013446360A268934219D32368636028465E
:1031D000E7E7C068FDF70CF8E368226C51429B1AE0
:1031E000E3602268934202D2A3680B44E360022D9D
:1031F00001D00020D5E726B1013E0020D1E72846C6
:10320000CFE70020CDE708B50346026C62B108465F
:10321000D9681144D960D3F808C0614501D3196851
:10322000D960D968FCF7E4FF08BD38B50546FFF75B
:1032300059FD95F8454064B201E0013C64B2002CB0
:103240000ADD6B6A43B105F1240000F01DFF002880
:10325000F3D000F0AFFFF0E7FF2385F84530FFF72C
:1032600063FDFFF73FFD95F8444064B201E0013C87
:1032700064B2002C0ADD2B6943B105F1100000F0A7
:1032800003FF0028F3D000F095FFF0E7FF2385F857
:103290004430FFF749FD38BD38B5E0B10D4604466E
:1032A000FFF720FD2368E26B216C01FB0230A06078
:1032B0000020A0636360013A02FB0133E360FF2357
:1032C00084F8443084F84530FDB9236963B9FFF7C9
:1032D0002BFD012038BD4FF0500383F31188BFF35D
:1032E0006F8FBFF34F8FFEE704F1100000F0CCFEAC
:1032F0000028ECD04FF0E0234FF08052C3F8042DAB
:10330000BFF34F8FBFF36F8FE1E704F11000FFF7BA
:103310004BFC04F12400FFF747FCD8E738B51D4605
:10332000049C0B4649B92460E063236401212046D4
:10333000FFF7B2FF84F84C5038BD2260F4E740B983
:103340004FF0500383F31188BFF36F8FBFF34F8F9C
:10335000FEE710B584B01C46844653B192B189B9DA
:103360004FF0500383F31188BFF36F8FBFF34F8F7C
:10337000FEE74FF0500383F31188BFF36F8FBFF365
:103380004F8FFEE76AB150230393039B502B13D05A
:103390004FF0500383F31188BFF36F8FBFF34F8F4C
:1033A000FEE70029EFD04FF0500383F31188BFF3FD
:1033B0006F8FBFF34F8FFEE7039B012384F84630E6
:1033C00000949DF818306046FFF7A8FF204604B02F
:1033D00010BDF0B585B0019288B10F461D46044678
:1033E000B1B1022D20D1E36B012B1DD04FF0500362
:1033F00083F31188BFF36F8FBFF34F8FFEE74FF05A
:10340000500383F31188BFF36F8FBFF34F8FFEE735
:10341000036C002BE5D04FF0500383F31188BFF30A
:103420006F8FBFF34F8FFEE700F0CAFE064658B914
:10343000019B002B48D04FF0500383F31188BFF35A
:103440006F8FBFF34F8FFEE700263DE02A463946D7
:103450002046FFF79DFE636A7BB948B14FF0E02339
:103460004FF08052C3F8042DBFF34F8FBFF36F8F1F
:10347000FFF75AFC012005B0F0BD04F1240000F074
:1034800003FE0028F4D04FF0E0234FF08052C3F841
:10349000042DBFF34F8FBFF36F8FE9E7FFF744FCB5
:1034A0000020E8E702A800F035FE012619E000231D
:1034B00084F8443021E0002384F8453023E020469E
:1034C000FFF7B3FE00F0B8FCFFF70CFCA26BE36B58
:1034D0009A42BBD3022DB9D0019B002BDED0002E27
:1034E000E0D0FFF721FC00F00DFCFFF7FBFB94F8A8
:1034F000442052B2B2F1FF3FD9D094F8452052B2E5
:10350000B2F1FF3FD7D0FFF70FFC01A902A800F0EE
:103510000DFED8B92046FFF71FFE0028CFD0019935
:1035200004F1100000F07CFD2046FFF77EFE00F065
:1035300083FC0028C8D14FF0E0234FF08052C3F83D
:10354000042DBFF34F8FBFF36F8FBDE72046FFF70A
:103550006CFE00F071FC00208DE72DE9F84390B17E
:103560000F4616461C460546B1B1022C20D1EB6B26
:10357000012B1DD04FF0500383F31188BFF36F8FE1
:10358000BFF34F8FFEE74FF0500383F31188BFF373
:103590006F8FBFF34F8FFEE7036C002BE5D04FF02A
:1035A000500383F31188BFF36F8FBFF34F8FFEE794
:1035B000FFF782FCEFF311884FF0500383F311887B
:1035C000BFF36F8FBFF34F8FAA6BEB6B9A4206D39B
:1035D000022C04D0002088F31188BDE8F88395F808
:1035E00045904FFA89F9AB6B224639462846FFF7DA
:1035F000CFFDB9F1FF3F06D009F101035BB285F8B9
:1036000045300120E7E76B6A0BB90120E3E705F1DC
:10361000240000F039FD18B126B101203060DAE74E
:103620000120D8E70120D6E7F0B585B0019290B12E
:103630000F460446C1B100F0C3FD064600BB019B26
:10364000002B5ED04FF0500383F31188BFF36F8FD0
:10365000BFF34F8FFEE74FF0500383F31188BFF3A2
:103660006F8FBFF34F8FFEE7036C002BE3D04FF05B
:10367000500383F31188BFF36F8FBFF34F8FFEE7C3
:1036800000263EE039462046FFF7BDFD013DA5631B
:10369000236923B9FFF748FB012005B0F0BD04F111
:1036A000100000F0F1FC0028F4D04FF0E0234FF0C0
:1036B0008052C3F8042DBFF34F8FBFF36F8FE9E73C
:1036C000FFF732FB0020E8E702A800F023FD012607
:1036D00021E0002384F8443029E0002384F84530B9
:1036E0002BE02046FFF7A1FD00F0A6FB09E02046F5
:1036F000FFF79BFD00F0A0FB2046FFF73CFD0028F4
:103700003FD1FFF7EFFAA56B002DBBD1019B002B3A
:10371000D6D0002ED8D0FFF707FB00F0F3FAFFF762
:10372000E1FA94F844305BB2B3F1FF3FD1D094F8A2
:1037300045305BB2B3F1FF3FCFD0FFF7F5FA01A9F7
:1037400002A800F0F3FC0028D1D12046FFF713FDBA
:103750000028C6D0019904F1240000F061FC204645
:10376000FFF763FD00F068FB0028CAD14FF0E023AB
:103770004FF08052C3F8042DBFF34F8FBFF36F8F0C
:10378000BFE7002089E700000023072B0CD8074A79
:1037900052F833200AB10133F7E7044A42F83310F4
:1037A00002EBC30250607047704700BF541C0020FA
:1037B00070B504460D461646FFF794FA94F8443067
:1037C0005BB2B3F1FF3F0DD094F845305BB2B3F17B
:1037D000FF3F0BD0FFF7A8FAA36B5BB12046FFF7C2
:1037E00024FD70BD002384F84430EDE7002384F805
:1037F0004530EFE73246294604F1240000F028FC6A
:10380000ECE70000084B1B681B6823B9074B4FF01F
:10381000FF321A607047044B1B68DB68DB685A682C
:10382000024B1A60704700BF041D00209C1C002042
:103830002DE9F04780460D4617469946089EDDF86B
:1038400024A00A9C9200A521206B00F063FF236B4B
:1038500007F18042013A03EB820727F00707002DAA
:1038600061D04FF0000CBCF10F0F09D815F80C30E7
:1038700004EB0C0282F8343013B10CF1010CF2E7C6
:10388000002384F84330372E00D93726E662E664F9
:1038900000252565201DFFF792F904F11800FFF7B8
:1038A0008EF92461C6F13806A6616462C4F89851A5
:1038B00084F89C514FF4A072294604F1580000F09E
:1038C00029FF1B4BE36503F168022266D033636670
:1038D00001220023C4E93C2343F20E33A4F8F8305C
:1038E0004AF6CD33A4F8FA3041F23423A4F8FC3080
:1038F0004EF26D63A4F8FE304DF6EC63A4F800318F
:103900000523A4F802310B23A4F804314A464146AA
:103910003846FFF7BFF92060BAF1000F01D0CAF8AE
:103920000040BDE8F087002384F83430ABE700BFE7
:10393000C022002038B5002407E004EB8402930085
:103940000E481844FFF730F90134372CF5D90C4DE7
:103950002846FFF729F90B4C2046FFF725F90A48BE
:10396000FFF722F90948FFF71FF90948FFF71CF98B
:10397000084B1D60084B1C6038BD00BF301D002087
:103980001C1D0020081D0020EC1C0020D81C00205D
:10399000C01C0020041D0020001D002010B504469E
:1039A000FFF7A0F9224A136801331360214B1B680B
:1039B0005BB1214B1B686BB91E4B1B68DA6AE36A6B
:1039C0009A4207D81B4B1C6004E01A4B1C6013681A
:1039D000012B29D0194A1368013313606364E06A2C
:1039E000174B1B68984201D9154B186000EB8000FB
:1039F000211D144B03EB8000FFF7E4F8FFF794F967
:103A00000D4B1B687BB10B4B1B68DA6AE36A9A4269
:103A100009D24FF0E0234FF08052C3F8042DBFF3DA
:103A20004F8FBFF36F8F10BDFFF784FFD2E700BF4A
:103A3000BC1C002090210020B01C0020A01C0020F5
:103A4000B41C0020301D002010B50446583000F092
:103A5000AFFE94F89D3163B1012B11D0022B0ED033
:103A60004FF0500383F31188BFF36F8FBFF34F8F75
:103A7000FEE7206BFFF732FB2046FFF72FFB10BD60
:103A80002046FFF72BFBFAE70F4B1B68D3B110B5AD
:103A9000FFF728F90D4BDB68DC68201DFFF7B6F84F
:103AA0000B4A1368013B1360074A1368013B13601C
:103AB000FFF73AF92046FFF7C7FF034B1B68002BBF
:103AC000E6D110BD704700BFD41C0020D81C0020D8
:103AD000BC1C002008B5FFF7D7FF074B1B68012B64
:103AE000F9D94FF0E0234FF08052C3F8042DBFF313
:103AF0004F8FBFF36F8FEEE7301D002070B5044687
:103B00000D46174B1E68174B18680430FFF77EF8F8
:103B1000B4F1FF3F0DD03444124B1B685C60A642E9
:103B200010D9114B18680F4B19680431FFF755F87D
:103B300070BD002DEFD00B4B196804310B48FFF717
:103B400041F8F5E70A4B1868064B19680431FFF78E
:103B500044F8084B1B68A342EAD9064B1C60E7E710
:103B6000B81C002090210020001D0020C01C002057
:103B7000041D00209C1C002030B587B00B9C8CB12C
:103B80000C9DC5B14FF4D0750495049DB5F5D07F5B
:103B90001AD04FF0500383F31188BFF36F8FBFF338
:103BA0004F8FFEE74FF0500383F31188BFF36F8F01
:103BB000BFF34F8FFEE74FF0500383F31188BFF33D
:103BC0006F8FBFF34F8FFEE7049D0C9D2C63022483
:103BD00085F89D4100240394029505AC01940A9C4C
:103BE0000094FFF725FE0C98FFF7D8FE059807B064
:103BF00030BD2DE9F04385B00746884614461E4681
:103C00009000FFF7E9F910B381464FF4D070FFF749
:103C1000E3F90546A8B1C0F83090002380F89D3143
:103C2000039302900D9B01930C9B00933346224615
:103C300041463846FFF7FCFD2846FFF7AFFE01205E
:103C400007E04846FFF74AFA4FF0FF3001E04FF037
:103C5000FF3005B0BDE8F08310B588B000240594AE
:103C6000069407AA06A905A8FEF786FF059B0293FE
:103C7000069B019300942346079A1A491A48FFF7B6
:103C80007BFF1A4B1860E8B100F05EFB01281AD1E7
:103C90004FF0500383F31188BFF36F8FBFF34F8F43
:103CA000134B1B685833134A1360134B4FF0FF320A
:103CB0001A60124B01221A60114B00221A60FFF7A2
:103CC0009BF803E00020B0F1FF3F01D008B010BD29
:103CD0004FF0500383F31188BFF36F8FBFF34F8F03
:103CE000FEE700BF704C0008D53A0008981C002081
:103CF00090210020140000209C1C0020B01C0020FB
:103D0000B81C0020024A136801331360704700BFDB
:103D1000941C0020014B1868704700BFB81C00209D
:103D2000F8B53A4B1B68002B69D1394B1D6801353A
:103D30001D60C5B9374B1B681B6843B14FF050037A
:103D400083F31188BFF36F8FBFF34F8FFEE7314AC4
:103D50001168314B186810601960304A13680133DC
:103D60001360FFF74FFD2E4B1B68AB423DD9002778
:103D70002C4B1B68DB6A03EB83039A002A4B9B588E
:103D8000012B00D90127294B1B68002B3CD00127B0
:103D90003AE001271F4B1B681B6843B31D4B1B6890
:103DA000DB68DC6863689D4226D3261D3046FEF73B
:103DB0002DFFA36A1BB104F11800FEF727FFE36A89
:103DC0001B4A1268934201D9194A136003EB83031B
:103DD0009A00314614481044FEF7F4FEE26A114B93
:103DE0001B68DB6A9A42D4D2D4E70027D2E70C4B97
:103DF0004FF0FF321A60BBE7094A1360B8E70D4A7B
:103E000013680133136000273846F8BD941C002066
:103E1000B81C0020041D0020001D0020A41C002050
:103E20009C1C002090210020301D0020A81C002098
:103E3000B41C0020AC1C002038B5354B1B6843B9BE
:103E40004FF0500383F31188BFF36F8FBFF34F8F91
:103E5000FEE7FEF747FF2E4B1A68013A1A601B680F
:103E6000002B4FD12B4B1B680BB900244BE00024D7
:103E7000294B1B681BB3284BDB68DC6804F1180076
:103E8000FEF7C4FE251D2846FEF7C0FEE06A234B60
:103E90001B68984201D9214B186000EB800029462D
:103EA0001F4B03EB8000FEF78DFEE26A1D4B1B6883
:103EB000DB6A9A42DCD31C4B01221A60D8E70CB1B2
:103EC000FFF7A0FC194B1C6884B9174B1C68D4B1D0
:103ED0004FF0E0234FF08052C3F8042DBFF34F8F13
:103EE000BFF36F8F01240EE0013C07D0FFF718FFEE
:103EF0000028F9D00C4B01221A60F5E70B4B002289
:103F00001A60E2E70024FEF70FFF204638BD00BF2D
:103F1000941C0020BC1C0020EC1C0020B41C0020C1
:103F2000301D002090210020A81C0020AC1C002087
:103F300010B5A8B10446104B1B6843B14FF05003B5
:103F400083F31188BFF36F8FBFF34F8FFEE7FFF747
:103F5000D9FE00212046FFF7D1FDFFF76DFF48B9DC
:103F60004FF0E0234FF08052C3F8042DBFF34F8F82
:103F7000BFF36F8F10BD00BF941C0020224B1B6845
:103F80001BB1224B01221A607047204B00221A609D
:103F90001F4B1B6803EB83018A001E498A585AB9DC
:103FA0000BB1013BF6E74FF0500383F31188BFF3E9
:103FB0006F8FBFF34F8FFEE7084603EB83018A0044
:103FC000024451684968516003EB830C4FEA8C024C
:103FD0000832024491420FD003EB830291000D4A54
:103FE0000A445268D1680C4A116009490B60136891
:103FF00058330A4A13607047486862469100054A80
:104000000A445060E8E700BF941C0020A81C002070
:10401000B41C0020301D002090210020140000203E
:1040200058B110B50C46094A11681831FEF7D5FD94
:1040300001212046FFF762FD10BD4FF0500383F3CE
:104040001188BFF36F8FBFF34F8FFEE790210020E1
:1040500038B570B10D4614460A4A11681831FEF79A
:10406000B1FD0CB14FF0FF3521462846FFF746FD64
:1040700038BD4FF0500383F31188BFF36F8FBFF348
:104080004F8FFEE79021002038B5C368DC6824B369
:1040900004F118052846FEF7B9FD184B1B682BBB29
:1040A000251D2846FEF7B2FDE06A154B1B689842B5
:1040B00001D9134B186000EB80002946114B03EB2C
:1040C0008000FEF77FFDE26A0F4B1B68DB6A9A42B5
:1040D00011D901200D4B186038BD4FF0500383F308
:1040E0001188BFF36F8FBFF34F8FFEE72946084853
:1040F000FEF768FDE7E70020EEE700BF941C002014
:10410000B41C0020301D002090210020A81C00209D
:10411000EC1C0020034B1B680360034B1B684360CF
:10412000704700BFA41C0020B81C002038B5E0B1C7
:104130000C46054611B3FEF7D5FD1C4B19686B689C
:10414000C81A2268B2F1FF3F29D0DFF864C0DCF85A
:1041500000C0D5F800E0E64501D08B4224D9824268
:1041600015D80023236001241AE04FF0500383F395
:104170001188BFF36F8FBFF34F8FFEE74FF05003EF
:1041800083F31188BFF36F8FBFF34F8FFEE75B1A86
:10419000134423602846FFF7BDFF002400E00024FD
:1041A000FEF7C2FD204638BD0124F9E7B81C002007
:1041B000A41C0020014B01221A607047A81C00209B
:1041C000054B1B6833B1054B1B680BB100207047D2
:1041D0000220704701207047B01C0020941C002072
:1041E00000283BD038B504461E4B1B68834208D0DC
:1041F0004FF0500383F31188BFF36F8FBFF34F8FDE
:10420000FEE7036D43B94FF0500383F31188BFF30A
:104210006F8FBFF34F8FFEE7013B0365C16AC26C2E
:1042200091421DD00BB1002038BD051D2846FEF778
:10423000EDFCE06CE062C0F13803A3610A4B1B683F
:10424000984201D9084B186000EB80002946074BC3
:1042500003EB8000FEF7B6FC0120E5E70020704785
:104260000020E1E790210020B41C0020301D002038
:10427000064B1A6813682BB90123036023B9D3686E
:10428000186870470023F8E7002070479422002048
:1042900008B54160006191420CD8D21A83699A42F4
:1042A00001D3012008BD011D094B1868FEF795FCDC
:1042B0000020F7E79A4201D2994206D2011D054B30
:1042C0001868FEF78AFC0020ECE70120EAE700BF4F
:1042D000902200209422002030B583B0FEF702FD2A
:1042E000114B1B681BB1FEF71FFD03B030BD0F4D16
:1042F0002846FEF759FC0E4C2046FEF755FC0D4BA8
:104300001D600D4B1C60002300930C4B0C4A1021C8
:104310000A20FFF714F8044B18600028E3D009497D
:10432000FFF732FADFE700BF8C220020AC2200202A
:104330009822002094220020902200209421002026
:10434000E4210020784C000810B588B0FFF7C4FFC6
:10435000124B1B68CBB100240594069407AA06A94A
:1043600005A8FEF715FC059B0293069B019302230B
:1043700000932346079A0A490A48FFF7FDFB0A4BB8
:10438000186010B1012008B010BD4FF0500383F346
:104390001188BFF36F8FBFF34F8FFEE78C22002091
:1043A000804C0008AD46000888220020B8B19C4629
:1043B00003461848006858B300B585B000910192D3
:1043C000029305291CDCFFF7FBFE022810D0002316
:1043D0001A4669460F480068FEF7FBFF15E04FF0EC
:1043E000500383F31188BFF36F8FBFF34F8FFEE746
:1043F0000023069A694607480068FEF7EAFF04E0D2
:10440000002362466946FFF7A8F805B05DF804FB93
:10441000002070478C22002070B582B01B4B1B68B7
:104420001A6862B3DB681E68DC68251D2846FEF743
:10443000EDFB236A2046984794F8283013F0040FC8
:10444000ECD0A36933449E4207D2636024612946BD
:104450000E4B1868FEF7C1FBE0E7002100910B4608
:1044600032462046FFF7A2FF0028D7D14FF0500375
:1044700083F31188BFF36F8FBFF34F8FFEE7044ABA
:10448000106802490860136002B070BD94220020D9
:104490009022002038B50546FFF73CFC0446074B48
:1044A0001B68834205D800232B60044B1C60204608
:1044B00038BDFFF7B1FF01232B60F6E7842200200F
:1044C00070B582B006460D4617490968C968CC68C0
:1044D000201DFEF79BFB94F828C01CF0040F08D1A8
:1044E0002CF0010C84F828C0236A2046984702B0BB
:1044F00070BDA16933462A4631442046FFF7C8FE05
:104500000028F1D0002100910B4632462046FFF7EB
:104510004DFF0028E8D14FF0500383F31188BFF31B
:104520006F8FBFF34F8FFEE79422002070B582B0EB
:1045300006460C46FFF7E6FB01A8FFF7ABFF019B21
:1045400033BB0546E4B9B04213D22246711B124B6D
:104550001868FFF72DF9FFF76FFCD8B94FF0E0238B
:104560004FF08052C3F8042DBFF34F8FBFF36F8F0E
:1045700010E0FFF761FC29463046FFF7A1FF09E094
:10458000064A126812680AB90124DEE71C46DCE715
:10459000FFF752FC02B070BD8C2200209022002058
:1045A00010B588B002E0049B002B0FDA002204A9AA
:1045B0003D4B1868FFF738F8002872D0049B002B99
:1045C000F1DA07990698059B9847ECE7069C636922
:1045D00013B1201DFEF71AFB03A8FFF75BFF02468D
:1045E000049B092BE2D8DFE803F00505052F364EC2
:1045F00005052F3694F8283043F0010384F828305D
:10460000059BA16919442046FFF742FE0028CDD042
:10461000236A2046984794F8283013F0040FC5D039
:10462000A269002100910B46059802442046FFF73D
:10463000BDFE0028BAD14FF0500383F31188BFF3B9
:104640006F8FBFF34F8FFEE794F8283023F00103FC
:1046500084F82830AAE794F8283043F0010384F85E
:1046600028300599A16129B1034601442046FFF78E
:104670000FFE9BE74FF0500383F31188BFF36F8F5A
:10468000BFF34F8FFEE794F8283013F0020F04D0E9
:1046900023F0010384F8283088E72046FEF71EFD4A
:1046A00084E708B010BD00BF8C22002000B583B0A5
:1046B00001A8FFF7DDFD0199FFF738FFFFF770FF55
:1046C000F6E70000034B1A6800235362536A8342E3
:1046D000FCD370470806002010B50D4C0022802145
:1046E0002046FCF7C2FE0220FFF7ECFF012240212A
:1046F0002046FCF7BAFE0220FFF7E4FF01228021EA
:104700002046FCF7B2FE0220FFF7DCFF10BD00BF21
:10471000000C0140830730B546D08446841805E07C
:10472000634603F8011B9D0703D09C46A445F7D1BF
:1047300030BD013A0244A2EB0C02032A29D9CCB2C3
:1047400004EB04240F2A04EB04442FD9A2F1100C2B
:104750002CF00F0C03F11005AC44C3E90044C3E98D
:10476000024410336345F8D112F00C0F02F00F0E23
:1047700018D01A462EF0030C9C44AEF1040542F802
:10478000044B6245FBD125F0030404330EF0030211
:104790002344002ACCD0C9B21A4403F8011B934227
:1047A000FBD130BD7246F4E70346C6E79646E0E724
:1047B000194B1B6883422ED0416C70B5054681B100
:1047C00000268C593CB121462468284600F0C4F8E4
:1047D000002CF8D1696C0436802EF2D1284600F006
:1047E000BBF8A96B11B1284600F0B6F82C6C34B1B7
:1047F00021462468284600F0AFF8002CF8D1E96C77
:1048000011B1284600F0A8F86B6B1BB12846BDE833
:104810007040184770BD704714000020014B1868A5
:10482000704700BF1400002070B50F4B0F4DAB4216
:10483000A3EB050607D00024B61055F8043B01345D
:104840009847A642F9D800F0FBF9094D094B5E1BC9
:10485000AB424FEAA60606D0002455F8043B0134CB
:104860009847A642F9D870BD044D0008044D0008D1
:10487000044D00080C4D0008704700BF704700BF92
:10488000024B13B1024800F005B870470000000069
:104890007D4B0008002301461A46184600F090B9E7
:1048A0002DE9F84306460820894600F07BF90546C5
:1048B000DFF89880304600F043F9D8F808305F6898
:1048C00027F00307A7F11104A4EB09042C44B4FB5F
:1048D000F5F4013C05FB04F4A54208DC0021304658
:1048E00000F03AF9D8F808303B44984205D03046F9
:1048F00000F02CF90020BDE8F8833046614200F05A
:104900002BF901300FD0124AD8F808303F1B47F07E
:1049100001075F60136830461B1B136000F016F937
:104920000120BDE8F8830021304600F015F9D8F8E1
:104930000820831A0F2BDADD43F001035360054B87
:1049400003491B68C01A0860D1E700BF6801002056
:10495000082400205C01002000295AD0F8B50C463C
:10496000074600F0EDF854F804CC724DA4F10802AB
:104970002CF00103D118A8684E68884226F003067F
:104980000CF0010E7CD04E608819406800F00100E8
:10499000BEF1000F2ED154F8084C05F1080C121B83
:1049A00023449468644560D0D2F80CE0C4F80CE06D
:1049B000CEF8084000287DD043F0010050600B6025
:1049C000B3F5007F2ED25809D908012383406868C7
:1049D000013103436B6055F8310005EBC103083B1F
:1049E000C2E9020345F83120C2603846BDE8F8400C
:1049F00000F0ACB870B9334405F1080C886843F096
:104A0000010460456ED0C968C16088605460D350AD
:104A1000D6E770474CF00101B3F5007F44F8041C61
:104A2000D350D0D3B3F5206F4FEA532144D2990924
:104A300001F1390001F13804C100681869580838DB
:104A4000884203D155E08968884204D04C6824F03C
:104A500003049C42F7D8C868C2E902108260384655
:104A6000BDE8F840CA6000F071B880BB1E44D1E9CF
:104A70000213CB60996046F0010353609651B4E78E
:104A80001E44BEF1000F07D154F8083CD21A1E4450
:104A9000D2E90213CB60996046F001035360264BC4
:104AA000AA601B68B342A0D8244B38461968FFF7A8
:104AB000F7FE9AE73344A1E714290DD954291FD8EA
:104AC000190B01F16F0001F16E04C100B5E743F06D
:104AD000010050600B6088E701F15C0001F15B04AC
:104AE000C100AAE7C5E90422C2E902CC5460D35050
:104AF0007BE70123A410A3406C6823436B60ABE702
:104B0000B1F5AA7F06D8D90B01F1780001F177043D
:104B1000C10092E740F25450814206D8990C01F14D
:104B20007D0001F17C04C10087E74FF47E717E2493
:104B300083E700BF680100206001002030240020CE
:104B40000148FFF799BE00BFFC2300200148FFF792
:104B500095BE00BFFC230020002238B5064D044658
:104B600008462A60FBF78CFE431C00D038BD2B683A
:104B7000002BFBD0236038BDF823002038B5074D4B
:104B8000074C2C1BA41005D0013C55F8043D984758
:104B9000002CF9D1BDE8384000F058B8104D00089D
:104BA0000C4D0008082802D14FF48050704708B51A
:104BB000FFF734FE162203464FF0FF301A6008BD9F
:104BC0002DE9F8431B4D0646286898460F46914646
:104BD000FFF752FE184B1C681CB3286865681F2D30
:104BE00022DC4EB96B1C0235636044F82570FFF778
:104BF00045FE0020BDE8F883012304EB8501C1F8E0
:104C00008890D4F88821AB401A43022EC4F888213A
:104C1000C1F80881E6D1D4F88C211A43C4F88C215C
:104C2000E0E7064C1C60D8E7FFF728FE4FF0FF30A6
:104C3000E0E700BF580100200424002034240020B5
:104C4000F8B500BFF8BC08BC9E467047F8B500BF79
:084C5000F8BC08BC9E46704749
:104C58006D6F746F725F6469720000006D6F746FBE
:104C6800725F6D6F7665000049444C450000000096
:104C7800546D725100000000546D72205376630029
:104C8800584C000800000000000000000000000070
:104C980000000000000400002000000000000000E8
:104CA80000000000644C0008000000000000000044
:104CB80000000000000000000004000028000000C0
:104CC80000000000000000000000000001020304D2
:104CD80000000000000000000102030406070809A4
:104CE8000102000002030405060708090A0B0C0D5F
:044CF8000E0F10107B
:084CFC00F4B4FF7F0100000089
:084D0400814800084503000886
:044D0C001D0300087B
:104D10000101000000127A000100000010000000F4
:104D2000AAAAAAAA1800002000000000C0220020A1
:104D30002823002090230020000000000000000035
:104D40000000000000000000000000000000000063
:104D50000000000000000000000000000000000053
:104D60000000000000000000000000000000000043
:104D70000000000000000000000000000000000033
:104D80000000000000000000000000000000000023
:104D90000000000000000000000000000000000013
:104DA0000000000000000000000000000000000003
:104DB00000000000000000000000000000000000F3
:104DC00001000000000000000E33CDAB34126DE690
:104DD000ECDE05000B0000000000000000000000F9
:104DE00000000000000000000000000000000000C3
:104DF00000000000000000000000000000000000B3
:104E000000000000000000000000000000000000A2
:104E10000000000000000000000000000000000092
:104E20000000000000000000000000000000000082
:104E30000000000000000000000000000000000072
:104E40000000000000000000000000000000000062
:104E50000000000000000000000000000000000052
:104E6000000000000000000000240020FFFFFFFF02
:104E70000000020000000000000000000000000030
:104E800068010020680100207001002070010020EE
:104E9000780100207801002080010020800100209E
:104EA000880100208801002090010020900100204E
:104EB0009801002098010020A0010020A0010020FE
:104EC000A8010020A8010020B0010020B0010020AE
:104ED000B8010020B8010020C0010020C00100205E
:104EE000C8010020C8010020D0010020D00100200E
:104EF000D8010020D8010020E0010020E0010020BE
:104F0000E8010020E8010020F0010020F00100206D
:104F1000F8010020F801002000020020000200201B
:104F200008020020080200201002002010020020C9
:104F30001802002018020020200200202002002079
:104F40002802002028020020300200203002002029
:104F500038020020380200204002002040020020D9
:104F60004802002048020020500200205002002089
:104F70005802002058020020600200206002002039
:104F800068020020680200207002002070020020E9
:104F90007802002078020020800200208002002099
:104FA0008802002088020020900200209002002049
:104FB0009802002098020020A0020020A0020020F9
:104FC000A8020020A8020020B0020020B0020020A9
:104FD000B8020020B8020020C0020020C002002059
:104FE000C8020020C8020020D0020020D002002009
:104FF000D8020020D8020020E0020020E0020020B9
:10500000E8020020E8020020F0020020F002002068
:10501000F8020020F8020020000300200003002016
:1050200008030020080300201003002010030020C4
:105030001803002018030020200300202003002074
:105040002803002028030020300300203003002024
:1050500038030020380300204003002040030020D4
:105060004803002048030020500300205003002084
:105070005803002058030020600300206003002034
:1050800068030020680300207003002070030020E4
:105090007803002078030020800300208003002094
:1050A0008803002088030020900300209003002044
:1050B0009803002098030020A0030020A0030020F4
:1050C000A8030020A8030020B0030020B0030020A4
:1050D000B8030020B8030020C0030020C003002054
:1050E000C8030020C8030020D0030020D003002004
:1050F000D8030020D8030020E0030020E0030020B4
:10510000E8030020E8030020F0030020F003002063
:10511000F8030020F8030020000400200004002011
:1051200008040020080400201004002010040020BF
:10513000180400201804002020040020200400206F
:10514000280400202804002030040020300400201F
:1051500038040020380400204004002040040020CF
:10516000480400204804002050040020500400207F
:10517000580400205804002060040020600400202F
:1051800068040020680400207004002070040020DF
:10519000780400207804002080040020800400208F
:1051A000880400208804002090040020900400203F
:1051B0009804002098040020A0040020A0040020EF
:1051C000A8040020A8040020B0040020B00400209F
:1051D000B8040020B8040020C0040020C00400204F
:1051E000C8040020C8040020D0040020D0040020FF
:1051F000D8040020D8040020E0040020E0040020AF
:10520000E8040020E8040020F0040020F00400205E
:10521000F8040020F804002000050020000500200C
:1052200008050020080500201005002010050020BA
:10523000180500201805002020050020200500206A
:10524000280500202805002030050020300500201A
:1052500038050020380500204005002040050020CA
:10526000480500204805002050050020500500207A
:10527000580500205805002060050020600500202A
:0400000508000B6D77
:00000001FF
